:100CE500526567204973204E6F742041626C652000
:100CF500546F205772697465212830783031290086
:100D0500556E646566696E656420436F6D6D616ED1
:090D1500642128307830322900F5
:100B7600120E4D120E9B120EB2120E35120A5212A0
:100B86000C9912076B7F147E00120DFEC298120D8F
:100B9600898F17EF702FAB0BAD0AAF09120C4B8F75
:100BA60016EF3395E0FEBEFF11BFFF0E7BFF7A0CFA
:100BB60079E5120DCC120ECC80D4AF16EF3395E04A
:100BC6004F70CB8006E5176401700512076B80BE77
:100BD600E517640270B87BFF7A0D7905120DCC1209
:040BE6000ECC80AA07
:1000030055415254204F4E4C494E452040203936DD
:1000130030305F6270737C4352435F4E6F6E657C1A
:10002300444154415F387C53544F505F3100495E23
:1000330032432042555320496E69742053756363DC
:1000430065737366756C6C7921002D2D2D2D2D2D07
:100053002D2D2D2D2D2D2D2D2D2D2D2D2D2D2D2DCD
:100063002D2D2D2D2D2D2D2D2D2D2D2D2D2D2D2DBD
:100073002D2D2D2D2D2D2D00202020202020202042
:10008300202000310030002020202020007C2D2D56
:100093002D2D2D2D2D2D2D2D2D2D2D2D2D2D2D2D8D
:1000A3002D2D2D2D2D2D2D2D2D2D2D2D2D2D2D2D7D
:1000B3002D2D2D2D2D2D2D2D50434D313739322002
:1000C300524547205354415455532D2D2D2D2D2D3D
:1000D3002D2D2D2D2D2D2D2D2D2D2D2D2D2D2D2D4D
:1000E3002D2D2D2D2D2D2D2D2D2D2D2D2D2D2D2D3D
:1000F3002D2D2D2D2D7C007C2D494E464F2D7C7CA6
:100103002D2D2D2D2D2D2D2D2D2D2D2D2D2D2D2D1C
:100113002D2D2D2D2D2D4D53422D2D2D2D2D2D2DB1
:100123002D2D2D2D2D2D2D2D2D2D2D2D2D2D7C7C5E
:100133002D2D2D2D2D2D2D2D2D2D2D2D2D2D2D2DEC
:100143002D2D2D2D2D2D4C53422D2D2D2D2D2D2D82
:100153002D2D2D2D2D2D2D2D2D2D2D2D2D2D2D7C7D
:100163000041646472204445437C423135202020A1
:1001730042313420202042313320202042313220AA
:100183007C20423131202020423130202020204267
:1001930039202020204238207C2020423720202074
:1001A30020423620202020423520202020423420A7
:1001B3007C20204233202020204232202020204255
:1001C3003120202020423020207C002D2D2D2D2D6C
:1001D3002D2D2D7C2D2D2D2D2D2D2D2D2D2D2D2DFD
:1001E3002D2D2D2D2D2D2D2D2D2D7C2D2D2D2D2DED
:1001F3002D2D2D2D2D2D2D2D2D2D2D2D2D2D2D2D2C
:100203002D2D7C2D2D2D2D2D2D2D2D2D2D2D2D2DCC
:100213002D2D2D2D2D2D2D2D2D2D7C2D2D2D2D2DBC
:100223002D2D2D2D2D2D2D2D2D2D2D2D2D2D2D2DFB
:100233002D2D2D7C0030783130203136207C522F0B
:10024300572D2D2D2D302D2D2D2D2D302D2D2D2DAB
:100253002D312D2D7C2D2D302D2D2D2D2D302D2D72
:100263002D2D2D302D2D2D2D2D302D2D7C2D41542B
:100273004C37202041544C36202041544C3520200B
:1002830041544C347C2041544C33202041544C3253
:10029300202041544C31202041544C30207C0030EC
:1002A300783131203137207C522F572D2D2D2D3091
:1002B3002D2D2D2D2D302D2D2D2D2D312D2D7C2D15
:1002C3002D302D2D2D2D2D302D2D2D2D2D302D2D52
:1002D3002D2D2D312D2D7C2D41545237202041546D
:1002E30052362020415452352020415452347C2030
:1002F3004154523320204154523220204154523130
:10030300202041545230207C003078313220313863
:10031300207C522F572D2D2D2D302D2D2D2D2D3071
:100323002D2D2D2D2D312D2D7C2D2D302D2D2D2DA4
:100333002D302D2D2D2D2D312D2D2D2D2D302D2DE0
:100343007C2D41544C442020464D54322020464DB0
:1003530054312020464D54307C20444D46312020DA
:10036300444D46302020444D452020204D555445D2
:10037300207C0030783133203139207C522F572DA7
:100383002D2D2D302D2D2D2D2D302D2D2D2D2D3190
:100393002D2D7C2D2D302D2D2D2D2D302D2D2D2D35
:1003A3002D312D2D2D2D2D312D2D7C2D52455620CA
:1003B30020204154533120204154533020204F50AA
:1003C30045207C2052535620202044464D53202064
:1003D300464C54202020494E5A44207C003078312A
:1003E30034203230207C522F572D2D2D2D302D2DA2
:1003F3002D2D2D302D2D2D2D2D312D2D7C2D2D30D1
:100403002D2D2D2D2D312D2D2D2D2D302D2D2D2D12
:100413002D302D2D7C2D52535620202053525354D2
:100423002020445344202020444654487C204D4FF0
:100433004E4F20204348534C20204F53312020203F
:100443004F533020207C0030783135203231207CEE
:10045300522F572D2D2D2D302D2D2D2D2D302D2D72
:100463002D2D2D312D2D7C2D2D302D2D2D2D2D315F
:100473002D2D2D2D2D302D2D2D2D2D312D2D7C2D53
:100483005253562020205253562020205253562098
:100493002020525356207C20525356202020445A69
:1004A30031202020445A3020202050434D5A207CB4
:1004B3000030783136203232207C20522D2D2D2DE4
:1004C3002D302D2D2D2D2D302D2D2D2D2D312D2D4F
:1004D3007C2D2D302D2D2D2D2D312D2D2D2D2D31EF
:1004E3002D2D2D2D2D302D2D7C2D5253562020209A
:1004F3005253562020205253562020205253562028
:100503007C205253562020205253562020205A46F6
:10051300475220205A46474C207C00307831372000
:100523003233207C20522D2D2D2D2D302D2D2D2D90
:100533002D302D2D2D2D2D312D2D7C2D2D302D2D8F
:100543002D2D2D312D2D2D2D2D312D2D2D2D2D31CC
:100553002D2D7C2D525356202020525356202020DF
:10056300525356202020494434207C2049443320D0
:10057300202049443220202049443120202049446E
:100583003020207C007C2D2D2D2D2D2D2D2D2D2D3E
:100593002D2D2D2D2D2D2D2D2D2D2D2D2D2D2D2D88
:1005A3002D2D2D2D2D2D2D2D2D2D2D2D2D2D2D2D78
:1005B3002D2D2D2D2D2D2D2D2D2D2D2D2D2D2D2D68
:1005C3002D2D2D2D2D2D2D2D2D2D2D2D2D2D2D2D58
:1005D3002D2D2D2D2D2D2D2D2D2D2D2D2D2D2D2D48
:1005E3002D2D2D2D2D2D2D2D2D2D2D2D2D7C0057EC
:1005F3007269746520436F6D6D616E6420466F721E
:100603006D61743A20572041646472204D53422037
:100613004C5342004578616D706C653A2020202070
:100623002020202020202020202030202031312095
:100633002020313120204141004D65616E733A2005
:1006430057726974652030783131414120417420FB
:1006530030783131002D2D2D2D2D2D2D2D2D2D2D9E
:100663002D2D2D2D2D2D2D2D2D2D2D2D2D2D2D2DB7
:100673002D2D2D2D2D2D2D2D2D2D2D2D2D2D2D2DA7
:100683002D2D005265616420436F6D6D616E642092
:10069300466F726D61743A202052004578616D7027
:1006A3006C653A202020202020202020202020209C
:1006B3002031004D65616E733A20526561642057A5
:1006C300686F6C652052656773002D2D2D2D2D2DC0
:1006D3002D2D2D2D2D2D2D2D2D2D2D2D2D2D2D2D47
:1006E3002D2D2D2D2D2D2D2D2D2D2D2D2D2D2D2D37
:1006F3002D2D2D2D2D2D2D00434F444520444553A5
:100703004352495054494F4E00307830312052659E
:10071300672043616E2774204265205772697474A1
:10072300656E003078303220556E646566696E659B
:100733006420436F6D6D616E64002D2D2D2D2D2D65
:100743002D2D2D2D2D2D2D2D2D2D2D2D2D2D2D2DD6
:100753002D2D2D2D2D2D2D2D2D2D2D2D2D2D2D2DC6
:080763002D2D2D2D2D2D2D0053
:0A0EA700020C00000408FFFFFFFF2B
:100E4D00758920758DFD758BFDD28ED29CC29FD27A
:020E5D009E22D3
:0C0E9B007BFF7A007903120DCC020ECC14
:100E35007BFF7A007931120DCC120ECC7BFF7A0044
:080E4500794D120DCC020ECC18
:10076B007BFF7A007990120DCC120ECC7F147E0099
:10077B00120DFE7BFF7A0079FA120DCC120ECC7F94
:10078B00147E00120DFE7BFF7A017964120DCC12E0
:10079B000ECC7F147E00120DFE7BFF7A0179CE12F8
:1007AB000DCC120ECC7F147E00120DFE7BFF7A0255
:1007BB007938120DCC120ECC7F10120BEA8E0C8FE7
:1007CB000D7BFF7A00797B120DCCE4F50EC3E50EA1
:1007DB00941074809480501BE50C7BFF30E7067AF5
:1007EB0000798680047A007988120DCC120DBB0536
:1007FB000E80DA120ECC7F147E00120DFE7BFF7A78
:10080B000279A2120DCC120ECC7F11120BEA8E0CB8
:10081B008F0D7BFF7A00797B120DCCE4F50EC3E5CF
:10082B000E941074809480501BE50C7BFF30E70610
:10083B007A00798680047A007988120DCC120DBB70
:10084B00050E80DA120ECC7F147E00120DFE7BFF9C
:10085B007A03790C120DCC120ECC7F12120BEA8E8E
:10086B000C8F0D7BFF7A00797B120DCCE4F50EC358
:10087B00E50E941074809480501BE50C7BFF30E7E1
:10088B00067A00798680047A007988120DCC120DD5
:10089B00BB050E80DA120ECC7F147E00120DFE7B90
:1008AB00FF7A037976120DCC120ECC7F13120BEA62
:1008BB008E0C8F0D7BFF7A00797B120DCCE4F50E3D
:1008CB00C3E50E941074809480501BE50C7BFF30B5
:1008DB00E7067A00798680047A007988120DCC12AB
:1008EB000DBB050E80DA120ECC7F147E00120DFEAE
:1008FB007BFF7A0379E0120DCC120ECC7F14120B16
:10090B00EA8E0C8F0D7BFF7A00797B120DCCE4F510
:10091B000EC3E50E941074809480501BE50C7BFF86
:10092B0030E7067A00798680047A007988120DCC3C
:10093B00120DBB050E80DA120ECC7F147E00120D49
:10094B00FE7BFF7A04794A120DCC120ECC7F151266
:10095B000BEA8E0C8F0D7BFF7A00797B120DCCE4AA
:10096B00F50EC3E50E941074809480501BE50C7B40
:10097B00FF30E7067A00798680047A007988120DB9
:10098B00CC120DBB050E80DA120ECC7F147E00123A
:10099B000DFE7BFF7A0479B4120DCC120ECC7F16B0
:1009AB00120BEA8E0C8F0D7BFF7A00797B120DCC2C
:1009BB00E4F50EC3E50E941074809480501BE50C87
:1009CB007BFF30E7067A00798680047A00798812FB
:1009DB000DCC120DBB050E80DA120ECC7F147E00EF
:1009EB00120DFE7BFF7A05791E120DCC120ECC7FF9
:1009FB0017120BEA8E0C8F0D7BFF7A00797B120D91
:100A0B00CCE4F50EC3E50E941074809480501BE576
:100A1B000C7BFF30E7067A00798680047A007988B0
:100A2B00120DCC120DBB050E80DA120ECC7F147E8C
:100A3B0000120DFE7BFF7A057988120DCC120ECCBD
:070A4B007F147E00020DFE86
:100C99007BFF7A0679FB120DCC120ECC7F147E00F5
:100CA900120DFE7BFF7A07790C120DCC120ECC7F48
:100CB900147E00120DFE7BFF7A077926120DCC12E5
:100CC9000ECC7F147E00120DFE7BFF7A07793D1250
:0C0CD9000DCC120ECC7F147E00020DFE2C
:100A52007BFF7A0579F2120DCC120ECC7F147E0048
:100A6200120DFE7BFF7A067917120DCC120ECC7F87
:100A7200147E00120DFE7BFF7A06793C120DCC1219
:100A82000ECC7F147E00120DFE7BFF7A067958127F
:100A92000DCC120ECC7F147E00120DFE7BFF7A0667
:100AA2007986120DCC120ECC7F147E00120DFE7BC5
:100AB200FF7A06799E120DCC120ECC7F147E0012A4
:100AC2000DFE7BFF7A0679B6120DCC120ECC7F1486
:100AD2007E00120DFE7BFF7A0679CD120DCC120E2E
:080AE200CC7F147E00020DFE22
:080EBC008F993099FDC29922C3
:070EC4003098FDC298AF99C0
:010ECB002204
:100DBB00E50D25E0F50DE50C33F50C7BFF7A00799D
:010DCB008A9D
:100DCC00120E1CFF600C120EBC740129F9E43AFAE5
:030DDC0080EE2284
:050ECC007F0A020EBCCC
:100D8900120EC48F08EFFD7C00701B7E01EEC39428
:100D99000474809480500C120EC474082EF8A607AF
:100DA9000E80EA7F0022ED64014C70037F01227FEF
:010DB9000237
:010DBA002216
:0A0EB200D2A1120ED1D2A0020ED17F
:0F0E5F00D2A0120ED1D2A1120ED1C2A0020ED17A
:0F0E6E00C2A0120ED1D2A1120ED1D2A0020ED16B
:100DDF00E4F514D2A1120ED130A00FC3E51494FF85
:0F0DEF00748094805004051480EEC2A1020ED1CE
:0F0E7D00C2A1C2A0120ED1D2A1120ED1C2A122C7
:0F0E8C00C2A1D2A0120ED1D2A1120ED1C2A122A8
:100D56008F15E4F514C3E514940874809480501933
:100D6600E51525E0F515C2A1120ED192A0120ED1FD
:100D7600D2A1120ED1051480DCC2A1120ED1D2A0CE
:030D8600020ED189
:100D1E00E4F515C2A1120ED1D2A0E4F514C3E51468
:100D2E00940874809480501AD2A1120ED1E5152524
:100D3E00E0FFA2A0E4334FF515C2A1120ED10514A7
:070D4E0080DB120ED1AF158E
:010D5500227B
:100C4B008F0F8D108B117E00C3EF941074809480E6
:100C5B00400AD3EF94157480948040037FFF225396
:100C6B00107F120E5F7F9C120D56120DDFAF0F120D
:100C7B000D56120DDFAF10120D56120DDFAF111204
:0E0C8B000D56120DDF120E6E120ED17F0022DA
:020BEA008F0F6B
:100BEC00E4F512F513FEC3EF941074809480400A60
:100BFC00D3EF94177480948040057EAA7FAA2212AA
:100C0C000E5F7F9C120D56120DDFAF0F120D561298
:100C1C000DDF120E5F7F9D120D56120DDF120D1E91
:100C2C008F10120E7D120D1E8F11120E8C120E6E65
:0E0C3C00E5134510F512E511F513AE12AF13D6
:010C4A002287
:100DFE00D3EF9400EE940040147D6E7C00ED1D70D8
:0D0E0E00011CED4C70F7EF1F70E61E80E335
:010E1B0022B4
:010ED10022FE
:03000000020AEA07
:0C0AEA00787FE4F6D8FD758117020B310F
:100E1C00BB010689828A83E0225002E722BBFE02D4
:090E2C00E32289828A83E4932207
:100AF600020B76E493A3F8E493A34003F68001F295
:100B060008DFF48029E493A3F85407240CC8C33300
:100B1600C4540F4420C8834004F456800146F6DFCF
:100B2600E4800B0102040810204080900EA7E47EAA
:100B3600019360BCA3FF543F30E509541FFEE493C4
:100B4600A360010ECF54C025E060A840B8E493A38B
:100B5600FAE493A3F8E493A3C8C582C8CAC583CAB6
:100B6600F0A3C8C582C8CAC583CADFE9DEE780BE6E
:010EB1000040
:00000001FF
